:020000040800F2
:100000005805002001010008B9110008C30B0008C1
:10001000B5110008870A0008BF2200080000000090
:10002000000000000000000000000000E5160008CD
:100030008B0A000800000000251500083918000888
:100040001B0100081B0100081B0100081B01000820
:100050001B0100081B0100081B0100081B01000810
:100060001B0100081B0100081B0100081B01000800
:100070001B0100081B0100081B0100081B010008F0
:100080001B0100081B0100081B0100081B010008E0
:100090001B0100081B0100081B0100081B010008D0
:1000A0001B010008F11800081B0100081B010008D3
:1000B0001B0100081B0100081B0100081B010008B0
:1000C0001B0100081B0100081B0100081B010008A0
:1000D0001B010008912000081B0100081B010008FB
:1000E0001B0100081B0100081B010008DFF80CD0F1
:1000F00000F056FC00480047493100085805002030
:100100000648804706480047FEE7FEE7FEE7FEE7B1
:10011000FEE7FEE7FEE7FEE7FEE7FEE73D18000824
:10012000ED00000870B5064602F00CF904680546BB
:100130000A220021304600F04FFB2C6070BDF0B465
:1001400080EA0102D40F4200B2EB410F02D2024614
:10015000084611464A0042D0C30DDDB2C1F3C75272
:10016000AD1A202D35DAC1F3160141F4000204B1B5
:100170005242C5F1200602FA06F12A411044B3EBBF
:10018000D05F23D0C4B1012DA0EBC35009DCF0BC7B
:100190004FF0004202EAC352DBB200F5000000F06B
:1001A0005CBB400000F1807000EBC350A0F1807098
:1001B00040EAD170490009E0490841EAC071A0EB6A
:1001C000C35000F50000400800EBC350F0BC00F045
:1001D0003BBB6142012202EB4101001BF6E7F0BC90
:1001E000704781F00041AAE780F00040A7E780EA6D
:1001F000010210B502F00043400022D04A001FD097
:10020000010E01EB1261C0F35600C2F3560240F436
:10021000000042F40002A0FB022000047F39140415
:1002200000D0401C50EA124001D44000491EC2B226
:100230000C0604EBD010401C4008802A02D003E0DA
:10024000002010BD20F00100002900DA0020184332
:1002500010BD30B480EA010202F0004530F00042E7
:1002600021F0004013D090B1C30DD40DC2F316019C
:10027000C0F31600E41A41F4000140F400027D349A
:10028000914201D3641C00E04900002C02DA30BC2A
:10029000002070474FF400000023914201D3891AD7
:1002A000034340084FEA4101F7D151B1914202D1D5
:1002B0004FF0004105E002D24FF0010101E06FF084
:1002C000010103EBC450284430BC00F0BDBA2DE955
:1002D000FE4F804681EA0300C00F0C46009021F0DB
:1002E000004123F00045B8EB0200A94105D2404689
:1002F000214690461C460B46024623F00040104320
:1003000047D0270DC7F30A00C3F30A510290401AE1
:10031000019040286BDAC3F3130040F4801B00986F
:10032000924620B10023D2EB030A63EB0B0B01983A
:100330005946C0F14002504600F01DFA06460D46EF
:1003400050465946019A00F035FA10EB0800614119
:10035000002487EA115284EAE7731A4340D0009AD6
:1003600062B3019A012A4FEA075215DC001B61EBC8
:1003700002014FF0004202EA0752CDE90042001CA0
:1003800041F5801132462B4600F0A4FA03B0BDE8D7
:10039000F08F40462146F9E7001B61EB0201001C8B
:1003A00041F5801300185B412018A2F5001747EBB8
:1003B000030140EAD570B6196D4111E06D084FEAAE
:1003C000360645EAC0754FEA0752001B61EB020191
:1003D000001C41F5801149084FEA300000195141D5
:1003E00032462B4603B0BDE8F04F00F064BA0098E7
:1003F000012240000023D0EB020263EBE07300987F
:1004000021464FEAE074B8EB000061EB0401E9E734
:1004100083F000435BE781F0004158E72DE9FE4F90
:1004200081EA030404F0004421F0004100944FF0FD
:10043000000B23F0004350EA01045ED052EA0304AB
:100440005BD0C3F30A54C1F30A552C44A4F2F3342D
:100450000194A0FB0254C1F3130141F48011C3F3D2
:10046000130343F4801301FB024400FB034E840A90
:10047000970A44EA815447EA8357A4FB0768029528
:100480008D0A05FB07854FEA932C04FB0C542705C6
:10049000029D4FEA065847EA1637B5EB08056EEBA2
:1004A000070C870E920E47EA811742EA8312A7FBD8
:1004B0000201B6EB0B0164EB00042B0D43EA0C3395
:1004C0005E1844EB1C50DA465146E7FB0201C5F3C7
:1004D00013044FEA0B3343EA14534FEA0432019CEE
:1004E00043EA0603A4F10C040294009CCDE900B495
:1004F00000F0F0F903B0BDE8F08F00200146F9E705
:100500002DE9F04D81EA030404F0004B21F0004591
:1005100014464FF0000A23F0004150EA050220D0B3
:1005200054EA01021DD0C5F30A570246C5F313036E
:10053000C1F31300C1F30A5640F4801543F480134D
:10054000A7EB0608101BD64608F2FD3873EB050032
:1005500002D308F1010801E092185B41B8F1000FE5
:1005600003DA00200146BDE8F08D00204FF4801131
:10057000064684460EE0171B73EB050705D3121BD6
:1005800063EB050306434CEA010C49084FEA3000CF
:1005900092185B4150EA0107EDD152EA030012D0F4
:1005A00082EA040083EA0501084305D0101BAB4131
:1005B00006D20122002306E000224FF0004302E0B1
:1005C0006FF0010253101AEB06004CEB085110EBD0
:1005D0000A0041EB0B01BDE8F04D00F06CB9C10F12
:1005E00080EAE0700844CA079623002100F035B97C
:1005F0000EB540F2334102910021CDE900110A46C7
:100600000B4600F067F903B000BD20F00040C10DBB
:10061000C0F3160040F400007F2901DA0020704783
:10062000962903DCC1F19601C8407047963988408D
:10063000704700F0004230F000400AD0C10D01F5D3
:100640006071C0F3160042EA0151C208400711432D
:10065000704700200146704730B5041E71F1000458
:1006600004DB4FF00044404264EB0101141E73F1BF
:10067000000405DB1C464FF00043524263EB0403C9
:10068000994208BF904230BD01F0004330B421F0E0
:10069000004150EA010206D00A0DA2F56072C1F3D2
:1006A0001301002A02DC30BC00207047440F44EAEA
:1006B000C104C100E01830BC00EBC25000F0C4B867
:1006C000002801DBC0F10040002901DBC1F100413D
:1006D00081427047002801DBC0F10040002901DBA6
:1006E000C1F100418842704730B50B4601460020F9
:1006F0002022012409E021FA02F59D4205D303FAE4
:1007000002F5491B04FA02F52844151EA2F1010264
:10071000F1DC30BD2DE9F05F0546002092469B4696
:1007200088460646814640241BE028464146474607
:10073000224600F02FF853465A46C01A914110D372
:1007400011461846224600F016F82D1A67EB0108EC
:100750004F4622460120002100F00DF817EB00095A
:100760004E41201EA4F10104DFDC484631462A46F2
:100770004346BDE8F09F202A04DB203A00FA02F14C
:10078000002070479140C2F1200320FA03F319437F
:1007900090407047202A04DB203A21FA02F0002121
:1007A000704721FA02F3D040C2F120029140084381
:1007B00019467047202A06DBCB17203A41FA02F08F
:1007C00043EAE07306E041FA02F3D040C2F12002AE
:1007D00091400843194670472DE9F04791460F466E
:1007E00080460446002614F8015B2DB100F0EAF8BB
:1007F0000068405DC007F6D12B2D02D02D2D18D0FA
:10080000641E4A463946204600F0E0F827B13968B0
:10081000A14201D1C7F8008071054FF002040BD549
:100820004042002803DD01F08DFD0460A007BDE813
:10083000F08746F48066E4E70028F8DA01F082FDEC
:1008400004606FF00040F2E70029A8BF7047401C29
:10085000490008BF20F00100704710B4B0FA80FCD6
:1008600000FA0CF050EA010404BF10BC704749B113
:10087000CCF1200421FA04F411FA0CF118BF012183
:1008800021430843A3EB0C01CB1D4FEA00614FEA63
:10089000102042BF002010BC704700EBC350104432
:1008A0000029A4BF10BC7047401C490008BF20F0BD
:1008B000010010BC704710B5141E73F1000408DA73
:1008C000401C41F1000192185B411A4301D120F014
:1008D000010010BD2DE9F04D92469B4611B1B1FAD1
:1008E00081F202E0B0FA80F220329046FFF743FF37
:1008F00004460F4640EA0A0041EA0B0153465A46B5
:10090000084313D0114653EA010019D0C8F1400240
:100910005046FFF73FFF05460E46504659464246B1
:10092000FFF729FF084305D0012004E0204639469F
:10093000BDE8F08D0020054346EAE0762C433743BE
:100940000A986305E40AA0EB08000022FD0A44EAC5
:1009500047540A3002D500200146E9E70105101985
:100960006941DDE9084500196941BDE8F04DA2E79C
:10097000C1F30A52C1F3130140F2FF3341F4801175
:100980009A4202DA00200146704740F233439A420D
:10099000A2F2334202DC5242FFF7FCBEFFF7EBBE8D
:1009A000064C074D06E0E06840F0010394E80700BC
:1009B00098471034AC42F6D3FFF79CFB6C34000828
:1009C0008C34000800487047683400082DE9F05F57
:1009D00082460078002715468B460AF10104B94685
:1009E000302801D09DB113E014F8010B01277828BD
:1009F00003D0582801D045B10AE00DB1102D07D120
:100A00000027102514F8010B02E0082500E00A2554
:100A10000026B0460EE005FB080005FB06F10127A5
:100A200001EB10461FFA80F8B6F5803F00D3B946B7
:100A300014F8010B294600F018F80028EBDABBF196
:100A4000000F05D00FB1641E00E05446CBF8004003
:100A5000B9F1000F06D001F075FC02210160C81E3B
:100A6000BDE8F09F48EA0640FAE73A2800D230385D
:100A700020F02002412A01D3A2F13700884201D39D
:100A80004FF0FF30704700BFFEE770472DE9F0419F
:100A9000024600250026002000230024002791F8AC
:100AA00003C00CF00F0591F803C00CF0100CBCF162
:100AB000000F03D091F802C04CEA050591F800C080
:100AC000BCF1000F31D0146800202BE04FF0010C76
:100AD0000CFA00F3B1F800C00CEA03069E4220D1E4
:100AE00083004FF00F0C0CFA03F7BC4305FA03FC2C
:100AF0004CEA040491F803C0BCF1280F06D14FF072
:100B0000010C0CFA00FCC2F814C00AE091F803C012
:100B1000BCF1480F05D14FF0010C0CFA00FCC2F8F3
:100B200010C0401C0828D1D31460B1F800C0BCF13B
:100B3000FF0F34DD546800202EE000F1080C4FF068
:100B4000010808FA0CF3B1F800C00CEA03069E4253
:100B500021D183004FF00F0C0CFA03F7BC4305FAC8
:100B600003FC4CEA040491F803C0BCF1280F05D142
:100B700000F1080C08FA0CF8C2F8148091F803C0D0
:100B8000BCF1480F07D100F1080C4FF0010808FA3A
:100B90000CF8C2F81080401C0828CED35460BDE881
:100BA000F0810246002093680B400BB1012000E069
:100BB00000207047016170470AB1016100E04161A6
:100BC000704700BFFEE721B1028842F480620280D4
:100BD00004E002884FF6FF331A400280704770B578
:100BE00002460024002500230020958A138B1B0455
:100BF00045EA030626F07F4404EA01068E4201D14D
:100C0000012000E0002070BD21B1028842F0010205
:100C1000028004E002884FF6FE731A40028070479B
:100C200010B504460B48844209D10121480500F063
:100C30008BFC00214FF4001000F086FC08E001213D
:100C4000880500F081FC00214FF4800000F07CFC5E
:100C500010BD00000054004021B1028842F48072AF
:100C6000028004E002884FF6FF631A40028070475A
:100C700021B1028842F40072028004E002884FF63B
:100C8000FF531A40028070472DE9F04385B00446B7
:100C90000D460026B1460427DFF8CC80A6884FF623
:100CA000C0700640684600F07FFCDDF808802F48E1
:100CB000B8FBF0F01FFA80F946EA0906A680208802
:100CC0004FF6FE7108402080002629492868884296
:100CD0000CD828684000B8FBF0F087B2042F00DA87
:100CE00004273E4309F10100208427E0E8884BF601
:100CF000FF71884206D1286800EB4000B8FBF0F095
:100D000087B209E0286800EBC00101EB0010B8FBD6
:100D1000F0F087B247F48047C7F30B0008B947F0FB
:100D2000010747F4004006434FF4967009FB00F0BA
:100D30004FF47A7190FBF1F0401C2084A683208848
:100D400040F00100208026884FF6F5300640A88844
:100D50006989084306432680A88929890843208198
:100D600005B0BDE8F083000000127A0040420F0099
:100D7000A086010030B585B005460C46012108204B
:100D800000F0F2FB2748854215D10121480500F00B
:100D9000CBFBC020ADF810001C208DF81300032001
:100DA0008DF8120004A92048FFF770FEC0211E48EC
:100DB000FFF700FF16E00121880500F0B5FB4FF4B6
:100DC0004060ADF810001C208DF8130003208DF852
:100DD000120004A91448FFF759FE4FF4406112486D
:100DE000FFF7E8FE2846FFF71BFF0020ADF80400E0
:100DF0004BF6FF70ADF806000020ADF808004FF488
:100E00008060ADF80A000001ADF80C00009469465E
:100E10002846FFF739FF01212846FFF7F5FE05B008
:100E200030BD000000540040000C01400146088A1B
:100E3000C0B2704712B141F0010102E04FF6FE73FB
:100E40001940018270470182704710B50446752031
:100E5000E16A00F03BF810BD70B504460D462A4625
:100E600001216B2000F076F92A4600216C2000F069
:100E700071F92A460021192000F06CF92A46002158
:100E80001A2000F067F92A4610211B2000F062F9B1
:100E90002A4600211C2000F05DF90848A0604FF0B0
:100EA0006250E06006482060064860600020E06113
:100EB000A0620548A061E56270BD000058A00B3A31
:100EC0000AD7A33C48E17A3FED0D3EBD70B504461C
:100ED0000D4601212846FFF7BFFE1F49284600F0B6
:100EE00017F90022D0212846FFF7A4FF1B49284606
:100EF00000F00EF921462846FFF7A5FF1749891C87
:100F0000284600F005F901212846FFF7A5FE124901
:100F1000284600F0FDF80122D0212846FFF78AFF7D
:100F20000D49491C284600F0F3F800212846FFF738
:100F30004AFE01212846FFF79BFE07493F3128461C
:100F400000F0E6F82846FFF771FF06460121284623
:100F5000FFF739FE304670BD010003008200070034
:100F60002DE9F04F85B00446624B0C223B20E16A2C
:100F700002F082F85F4840785E49097840EA012033
:100F800000B220825B48C0785A49897840EA012043
:100F900000B26082574840795649097940EA0120F9
:100FA00000B2A0825348C07A5249897A40EA0120AF
:100FB00000B2E08250480568A06AA84211D94F4AA1
:100FC000A16A1268511A4819FFF712FB4C4A4D4B9F
:100FD000CDE90201FFF722FA0746FFF755FB064667
:100FE0000DE0A16A681AFFF703FB454A454BCDE9BE
:100FF0000201FFF713FA0746FFF746FB06460021FA
:101000003046FFF75DFB08D93046FFF712FB074675
:1010100000223D4BFFF720FB00D23C4EA562B4F905
:101020001000FFF7DCFA0746E168FFF7E0F88346B7
:10103000B4F91200FFF7D3FA0746E168FFF7D7F8D3
:101040008146B4F91400FFF7CAFA0746E168FFF7D2
:10105000CEF8824600215046FFF73CFB01D201202A
:1010600001E04FF0FF30049049464846FFF7BFF8D3
:10107000514601905046FFF7BAF800900199FFF7EA
:101080005EF8029001F074FF80460498FFF7A7FA1B
:1010900041460390FFF7ABF807463946584601F042
:1010A00065F96062B4F91600FFF799FA8046A16805
:1010B000FFF79DF80746A169FFF793F880F000401D
:1010C0002062616A2068FFF792F803903146206A37
:1010D000FFF78DF80290E169FFF731F8804661680B
:1010E000FFF785F807460399FFF729F8E06105B097
:1010F000BDE8F08F4C0100201400002018000020F3
:10110000F168E388B5F8E43E0000E03F6F12833AEF
:1011100070B505460E4642F2107405E0641E1CB917
:1011200005A001F0FFF805E031462846FFF757FD1E
:101130000128F3D100BF70BD4D5055363035305FBA
:10114000576169744576656E74206661696C656483
:10115000200D0A0070B504460E46154601212846AA
:10116000FFF77AFD11492846FFF7D2FF0022D02170
:101170002846FFF75FFE0E492846FFF7C9FF2146C4
:101180002846FFF760FE0A49891E2846FFF7C0FF80
:1011900031462846FFF757FE0549891C2846FFF7C8
:1011A000B7FF01212846FFF763FD70BD0100030072
:1011B0008200070000BFFEE7704700001FB519A1BD
:1011C00003C9CDE9020100200090019001F092F8DE
:1011D000012001F09BF8002001F074F8052202A91B
:1011E000302000F014F905226946102000F0E2F8E2
:1011F0009DF80000112812D19DF8010022280ED17F
:101200009DF8020033280AD19DF80300442806D136
:101210009DF80400552802D1002004B010BD012023
:10122000FBE70000112233445500000070B504466E
:10123000072000F0DBF805462946272000F003F9D7
:1012400005F0400098B1012001F03CF82022214631
:10125000612000F0AFF8FF21E22000F0F4F8012057
:1012600001F030F8962001F0DDFE002070BD012075
:10127000FCE710B500F002FA10BD10B500F008F858
:1012800000BFFFF79BFF0028FBD100F05DF810BD09
:1012900008B501210C2000F067F910208DF803003B
:1012A0000002ADF8000003208DF8020069462448D2
:1012B000FFF7ECFB10208DF803004002ADF80000B2
:1012C00003208DF8020069461D48FFF7DFFB102060
:1012D0008DF803008002ADF8000003208DF80200B5
:1012E00069461748FFF7D2FB4FF40060ADF80000E5
:1012F00010208DF8030003208DF802006946104885
:10130000FFF7C4FB48208DF803004FF40040ADF810
:10131000000003208DF8020069460948FFF7B6FB7C
:101320004FF48070ADF8000048208DF803000320D2
:101330008DF8020069460348FFF7A8FB08BD0000CE
:10134000000C01400008014010B5002000F0BAFF79
:101350002021312000F077F8FF21E22000F073F81F
:1013600005221249302000F052F8052210492A20A7
:1013700000F04DF80121212000F065F80121222024
:1013800000F061F81A21242000F05DF800212520EA
:1013900000F059F80F21262000F055F80F212020E9
:1013A00000F051F8012000F08DFF10BDDC33000883
:1013B000E13300082DE9F04107460D4616460020AE
:1013C00000F0A4FF384600F06DF98046002405E0E7
:1013D000FF2000F067F92855601CC4B2B442F7DB67
:1013E000012000F093FF4046BDE8F08170B504464F
:1013F000002000F08BFF204600F054F9FF2000F0A1
:1014000051F90546012000F081FF284670BD2DE905
:10141000F04107460C461546002000F077FF38469D
:1014200000F040F98046002605E014F8010B00F0BA
:1014300039F9701CC6B2AE42F7DB012000F066FF3E
:101440004046BDE8F08170B505460C46002000F02E
:101450005DFF284600F026F90646204600F022F9F6
:10146000012000F053FF304670BD000070B5002130
:1014700000230F22C47804B3154C246804F4E064FC
:10148000C4F5E064210AC1F10403CA40447804FAB7
:1014900003F184781440214309010E4C0678A155CC
:1014A000047804F01F050124AC4005786D11AD00EF
:1014B00005F1E025C5F8004109E0047804F01F05B6
:1014C0000124AC40044D0678761145F8264070BDE5
:1014D0000CED00E000E400E080E100E070B50546BE
:1014E0000E461446012C06D0022C09D0032C0CD039
:1014F000042C14D10EE03146284600F06EFD0FE0BA
:101500003146284600F06BFD0AE03146284600F0DF
:1015100068FD05E03146284600F065FD00E000BFAB
:1015200000BF70BD7047000029B1064AD26902436E
:10153000044BDA6104E0034AD2698243014BDA6169
:10154000704700000010024029B1064A12690243A8
:10155000044B1A6104E0034A12698243014B1A6189
:10156000704700000010024029B1064A9269024308
:10157000044B9A6104E0034A92698243014B9A61E9
:10158000704700000010024029B1064AD2680243A9
:10159000044BDA6004E0034AD2688243014BDA600C
:1015A000704700000010024030B5002100220024E6
:1015B00000232D4D6D6805F00C0121B1042905D0E3
:1015C000082923D105E0294D056022E0274D05605B
:1015D0001FE0254D6D6805F47012234D6D6805F40C
:1015E0008034022505EB92421CB9214D554305601C
:1015F0000BE01D4D6D6805F400351DB11C4D5543C4
:10160000056002E0194D5543056002E0174D056085
:1016100000BF00BF144D6D6805F0F0010909154DBC
:101620006B5C0568DD4045600F4D6D6805F4E06159
:10163000090A104D6B5C4568DD4085600A4D6D6898
:1016400005F46051C90A0B4D6B5C4568DD40C5600F
:10165000054D6D6805F44041890B074D6B5CC5680D
:10166000B5FBF3F5056130BD0010024000127A00B1
:1016700000093D00000000201000002010B54FF4CC
:1016800080710248FFF78DFA10BD0000000801408C
:1016900010B54FF400410248FFF783FA10BD000077
:1016A000000C014070B50446002517E004F08000EE
:1016B000802803D1012000F011FE02E0002000F09C
:1016C0000DFE6006040E012000F014FEFFF7E0FF9F
:1016D0000443002000F00EFE681CC5B2082DE5DBB7
:1016E000204670BD704700002DE9F04704460D46C6
:1016F000042C02DA4FF0804000E0114806462046F4
:10170000E11704EB91718910A4EB8101491CCCB263
:101710000C492846FEF79DFD82460B49FEF767FD02
:1017200081460A49FEF70BFD8046FEF76EFF87B241
:10173000224639463046FFF7D1FEBDE8F08700006B
:1017400000040040000034430000FA440000FA4363
:1017500010B500F001F810BD0CB50020019000900C
:101760003348006840F480303149086000BF304899
:10177000006800F4003000900198401C019000982F
:1017800018B90198B0F5A06FF1D12948006800F4AC
:10179000003010B10120009001E00020009000987E
:1017A000012843D12348006840F010002149086017
:1017B0000846006820F0030008600846006840F012
:1017C000020008601A4840681949486008464068A5
:1017D00048600846406840F48060486008464068B9
:1017E00020F47C1048600846406840F4E8104860E7
:1017F0000846006840F08070086000BF0C48006830
:1018000000F000700028F9D00948406820F003007B
:10181000074948600846406840F00200486000BF41
:101820000348406800F00C000828F9D10CBD000006
:1018300000100240002002407047000010B513481D
:10184000006840F0010011490860084640681049EE
:1018500008400E494860084600680E4908400B4998
:1018600008600846006820F4802008600846406848
:1018700020F4FE0048604FF41F008860FFF768FF07
:101880004FF000600449086010BD000000100240E5
:101890000000FFF8FFFFF6FE08ED00E01FB5012194
:1018A000C802FFF761FE19208DF8000001208DF8B5
:1018B00003006846FFF7DAFD4720ADF80400092071
:1018C000ADF808000020ADF80600ADF80A0001A947
:1018D000064800F08BFB01221146044800F019FA7B
:1018E0000121024800F003F91FBD0000002C014057
:1018F00010B50121074800F0FBF9012804D1064882
:101900000068401C044908600121024800F0ECF81E
:1019100010BD0000002C01401400002000B589B06B
:1019200001210846FFF700FE01210420FFF71CFEFD
:1019300018208DF823000F20ADF8200003208DF82B
:10194000220008A92948FFF7A1F84FF0804000F0D5
:10195000DBF80020ADF81A00ADF8160044F61F6061
:10196000ADF818004720ADF8140000208DF81C00D9
:1019700005A94FF0804000F039FB6020ADF804006D
:101980000120ADF806000020ADF80A00ADF80C000B
:1019900001A94FF0804000F0C5F901A94FF0804047
:1019A00000F016FA01A94FF0804000F071FA01A989
:1019B0004FF0804000F0C6FA0821C80600F0FEF99A
:1019C0000821C80600F056FA0821C80600F0B0FA4F
:1019D0000821C80600F0F4FA0121880700F078F821
:1019E0000121880700F083F809B000BD000801401C
:1019F00000B589B001210220FFF796FD01210C20DE
:101A0000FFF7B2FD18208DF8230003208DF8220087
:101A1000C020ADF8200008A92A48FFF737F80320B6
:101A2000ADF8200008A92848FFF730F8274800F053
:101A30006BF80020ADF81A00ADF8160044F61F60F0
:101A4000ADF818004720ADF8140000208DF81C00F8
:101A500005A91E4800F0CAFA6020ADF80400012074
:101A6000ADF806000020ADF80A00ADF80C0001A9A1
:101A7000164800F057F901A9144800F0A9F901A986
:101A8000124800F005FA01A9104800F05BFA08219D
:101A90000E4800F093F908210C4800F0EBF90821FA
:101AA0000A4800F045FA0821084800F089FA0121A7
:101AB000064800F00DF80121044800F018F809B0BC
:101AC00000BD000000080140000C0140000400407F
:101AD00021B1028842F08002028004E002884FF6C1
:101AE0007F731A4002807047CA430282704721B157
:101AF000028842F00102028004E002884FF6FE7381
:101B00001A4002807047000010B5044668488442BD
:101B100008D10121C014FFF737FD0021E014FFF7C1
:101B200033FDC4E0B4F1804F08D101210846FFF72E
:101B30000BFD00210120FFF707FDB8E05D4884425E
:101B400008D101210220FFF7FFFC00210220FFF74E
:101B5000FBFCACE05848844208D101210420FFF787
:101B6000F3FC00210420FFF7EFFCA0E0534884427F
:101B700008D101210820FFF7E7FC00210820FFF72A
:101B8000E3FC94E04E48844208D101211020FFF785
:101B9000DBFC00211020FFF7D7FC88E04948844295
:101BA00008D101212020FFF7CFFC00212020FFF7E2
:101BB000CBFC7CE04448844208D101214014FFF76B
:101BC000E3FC00216014FFF7DFFC70E03F48844233
:101BD00009D10121C804FFF7D7FC00214FF40020F0
:101BE000FFF7D2FC63E03A48844209D1012108059D
:101BF000FFF7CAFC00214FF48010FFF7C5FC56E048
:101C00003448844209D101214805FFF7BDFC002179
:101C10004FF40010FFF7B8FC49E02F48844208D188
:101C200001214020FFF790FC00214020FFF78CFCB1
:101C30003DE02A48844208D101218020FFF784FC3E
:101C400000218020FFF780FC31E02548844208D144
:101C500001218015FFF778FC0021A015FFF774FC27
:101C600025E02048844209D101210804FFF78CFCBB
:101C700000214FF48030FFF787FC18E01A488442B7
:101C800009D101214804FFF77FFC00214FF4003007
:101C9000FFF77AFC0BE01548844208D10121880443
:101CA000FFF772FC00214FF48020FFF76DFC10BDA0
:101CB000002C01400004004000080040000C0040DF
:101CC000001000400014004000340140004C01406E
:101CD000005001400054014000180040001C00402A
:101CE0000020004000400140004401400048014005
:101CF00030B50246002000230024158A05EA0103BE
:101D0000958905EA010413B10CB1012000E000201F
:101D100030BD1AB183890B43838102E083898B43F1
:101D20008381704770B5002400220023058C4FF694
:101D3000FE7635400584028C8388048B4FF68F75C0
:101D40002C40B51E2C400D882C43751E2A400D8951
:101D50002A434D882A43144DA8420BD0134DA84264
:101D600008D0134DA84205D0124DA84202D0124D02
:101D7000A84213D14FF6F7752A404D892A434FF6F2
:101D8000FB752A408D882A434FF6FF652B404FF69E
:101D9000FF552B408D892B43CD892B4383800483B2
:101DA000CD888586028470BD002C0140003401403E
:101DB0000040014000440140004801400A46002123
:101DC000018B4FF6F77319401143018370470000F0
:101DD00070B5002400220023058C4FF6EF763540C5
:101DE0000584028C8388048B48F6FF752C404FF6DF
:101DF000FF452C400D884FF6FF7606EA05252C435B
:101E00004FF6DF752A400D8906EA05152A434D88ED
:101E100006EA05152A43154DA84202D0144DA842E2
:101E20001DD14FF67F752A404D894FF6FF7606EAA1
:101E300005152A434FF6BF752A408D8806EA051519
:101E40002A434FF6FF352B404FF2FF752B408D890B
:101E500006EA85052B43CD8906EA85052B43838059
:101E60000483CD880587028470BD0000002C0140EA
:101E7000003401400A460021018B4FF2FF731940E4
:101E80004FF6FF7303EA02231943018370470000F2
:101E900070B5002400220023058C4FF6FF66354004
:101EA0000584028C8388848B4FF68F752C404FF607
:101EB000FC752C400D882C434FF6FF552A400D89A8
:101EC0004FF6FF7606EA05252A434D8806EA0525E2
:101ED0002A43154DA84202D0144DA8421DD14FF2FD
:101EE000FF752A404D894FF6FF7606EA05252A43FD
:101EF0004FF6FF352A408D8806EA05252A434EF61F
:101F0000FF752B404DF6FF752B408D8906EA0515B0
:101F10002B43CD8906EA05152B4383808483CD8826
:101F20008587028470BD0000002C01400034014010
:101F30000A460021818B4FF6F773194011438183C4
:101F40007047000070B5002200230024058C4EF677
:101F5000FF7635400584038C8488828B48F6FF75B4
:101F60002A404FF6FF452A400D884FF6FF7606EAD5
:101F700005252A434DF6FF752B400D8906EA0535E8
:101F80002B434D8806EA05352B430B4DA84202D062
:101F90000A4DA84208D14BF6FF752C408D894FF6AB
:101FA000FF7606EA85152C4384808283CD88A0F8CD
:101FB0004050038470BD0000002C014000340140FB
:101FC0000A460021818B4FF2FF7319404FF6FF73D1
:101FD00003EA022319438183704781867047018792
:101FE000704781877047A0F8401070470022028830
:101FF0001D4B98420ED01D4B98420BD0B0F1804F34
:1020000008D01B4B984205D01A4B984202D01A4B6D
:10201000984204D14FF68F731A404B881A43174BDE
:10202000984207D0164B984204D04FF6FF431A400F
:10203000CB881A4302808B8883850B8803850A4BE3
:1020400098420BD0094B984208D00E4B984205D0CD
:102050000D4B984202D00D4B984201D10B7A03866A
:102060000123838270470000002C014000340140AE
:102070000004004000080040000C00400010004038
:10208000001400400040014000440140004801406D
:1020900010B540F22551204800F050F800283AD001
:1020A0001D4800F007F9C4B21C48008800F4004045
:1020B000F8B91A48008800F4804090B10A2C03D087
:1020C00000201649088026E01448008840F40040AB
:1020D0001249088000200988C1F30D01104A5054AC
:1020E00019E00D2C06D10D48008840F480400B49C2
:1020F000088010E009480088C0F30D0008490C541E
:1021000006480088401C0549088008460088FF28CA
:1021100001DD0020088010BD0038014020000020B3
:102120002C00002021B1828942F40052828104E017
:1021300082894DF6FF731A408281704770B502465E
:10214000002400230025002040F66A16B14200D189
:1021500000BFC1F3421501F01F03012606FA03F385
:10216000012D02D19689334006E0022D02D1168A54
:10217000334001E0968A33400C12012606FA04F43B
:102180001688344013B10CB1012000E0002070BD6E
:10219000F0B50346002400260025002040F66A170B
:1021A000B94200D100BF1846C1F3421401F01F0626
:1021B000012707FA06F5012C01D10C3004E0022CAE
:1021C00001D1103000E014301AB107682F430760C6
:1021D00002E00768AF430760F0BD00002DE9F0475B
:1021E00086B005460E460024A24600BFA146002741
:1021F000B08900B100BF2F462C8A4CF6FF70044016
:10220000F08804432C82AC894EF6F3100440B08869
:1022100031890843718908430443AC81AC8A4FF685
:10222000FF400440B0890443AC8201A8FFF7BCF929
:102230001F48874202D1DDF810A001E0DDF80CA0B4
:10224000A88900F4004040B10AEBCA0000EB0A1074
:1022500031684900B0FBF1F807E00AEBCA0000EB77
:102260000A1031688900B0FBF1F86420B8FBF0F087
:1022700004012009642101FB1089A88900F40040B1
:1022800040B1322000EBC900B0FBF1F000F00700D4
:10229000044308E0322000EB09106421B0FBF1F0A8
:1022A00000F00F0004432C8106B0BDE8F087000069
:1022B0000038014001468888C0F30800704700BF1D
:1022C000FEE7000010B5044622464FF400610248C4
:1022D000FEF772FC10BD0000000C014010B5044672
:1022E00022464FF480410248FEF766FC10BD000014
:1022F000000C014010B5044622464FF4005102483C
:10230000FEF75AFC10BD0000000C014010B5044659
:1023100022464FF480510248FEF74EFC10BD0000EB
:10232000000C01400FB4054B10B503A9044A0298F4
:1023300000F086FA10BC5DF814FB00005D30000868
:102340001C000020004870472800002002E008C858
:10235000121F08C1002AFAD170477047002001E01F
:1023600001C1121F002AFBD1704700002DE9F34F75
:1023700089B00D460998FEF75CF921F00041074647
:10238000FEF782F981462846FEF753F921F0004115
:102390000746FEF779F9064600212846FEF790F930
:1023A00001D2012000E00020870000210998FEF7FB
:1023B00087F901D2012000E0002007EB40074946E1
:1023C0003046FEF77DF901D8012000E000203C18DE
:1023D000082C7DD2DFE804F00434688EB7E0FDFC01
:1023E00000212846FEF76CF908D100210998FEF774
:1023F00067F903D100200BB0BDE8F08F31464846A5
:10240000FDF727FF08900898FEF713F9CDE90401BE
:102410000898FEF70EF99F4A9F4BCDE90201FDF7A0
:10242000FDFF82469D4A9E4BFDF7F5FF0746DDE91D
:102430000423FDF7F3FFCDE90601FEF725F9DAE7FE
:1024400000212846FEF73CF906D100210998FEF745
:1024500037F901D10020CEE749463046FDF7F9FEB5
:1024600008900898FEF7E5F8CDE904010898FEF712
:10247000E0F8884A884BCDE90001FDF7CFFF874A95
:10248000874BCDE90201FDF7C6FF0746DDE90423CE
:10249000FDF7C4FF834A844BCDE90601FDF7BBFF7E
:1024A0008246FEF7F1F8A6E731464846FDF7D1FE31
:1024B00008900898FEF7BDF8CDE904010898FEF7EA
:1024C000B8F8744A744BCDE90201FDF7A7FF00E0AC
:1024D000DEE00746714A724BFDF79DFF81F0004137
:1024E0008246DDE90423FDF799FFCDE90601FEF7F9
:1024F000CBF880E749463046FDF7ABFE08900898D8
:10250000FEF797F8074688460898FEF792F8614A62
:10251000614BCDE90001FDF781FF604A604BCDE9D9
:102520000201FDF778FF82463A464346FDF776FF03
:102530005C4A5E4BCDE90401FDF7C9FECDE9060119
:10254000FEF7A2F857E731464846FDF782FE0890AD
:102550000898FEF76EF8074688460898FEF769F86F
:1025600082464C4A4C4BFDF759FF4C4A4C4BCDE947
:102570000001FDF750FF3A464346CDE90201FDF761
:102580004DFF4B4A4B4BCDE90401FDF744FFCDE92C
:102590000601FEF779F82EE749463046FDF759FE69
:1025A00008900898FEF745F8CDE902010898FEF773
:1025B00040F88246374A384BFDF730FF0746374A26
:1025C000374BFDF728FFCDE90001DDE9022301E0EB
:1025D00035E00CE0FDF722FF324A334BCDE9040130
:1025E000FDF775FECDE90601FEF74EF803E731462B
:1025F0004846FDF72EFE08900898FEF71AF8CDE938
:1026000002010898FEF715F80746224A224BFDF70B
:1026100005FF8246214A224BFDF7FDFECDE9000170
:10262000DDE90223FDF7FAFE214A234BCDE904013F
:10263000FDF74DFECDE90601FEF726F8DBE649463B
:102640003046FDF706FE08900898FDF7F2FF824637
:102650008B460898FDF7EDFF0E4A0F4BCDE90001C0
:10266000FDF7DCFE07460D4A0D4BFDF7D4FE524642
:102670005B46CDE90201FDF7D1FE0A4A0B4BCDE9DD
:102680000401FDF7C8FECDE90601FDF7FDFFB2E646
:102690000020B0E646B6F3FDD478D13F1E049FE992
:1026A00032EFF03FF4D64354FB21F93FFB21F9BF51
:1026B000EA2E4454FB210940FB2109C02DE9FF5FAC
:1026C00082B00021DDE90430020DDDF840B00343A3
:1026D00018D044F61050A2F2FF324243151411985C
:1026E00001281FD0A5EB0B00401C5FEA000A4FF049
:1026F00000064E4FDFF83891B046504615D5CAF166
:10270000000413E0119801244AA3012801D16FEAC3
:102710000B010298119AC0E90031C0E9024206B0EB
:10272000BDE8F09FCBF10000DFE704460021404AFE
:10273000491842EB0450CDE9001012E0E00707D041
:1027400032463B4640464946FDF768FE804689468C
:1027500032463B4610461946FDF760FE06460F46D8
:102760006410002CEAD1DDE90401DDE90023BAF1AF
:10277000000F06DAFDF752FE42464B46FDF74EFECD
:1027800005E0FDF7BDFE42464B46FDF7B9FE0446A7
:102790000E460022284BFDF75FFF03D84FF0FF30B5
:1027A000014607E00022254B20463146FDF78FFD0C
:1027B000FEF7DEF8102409E0002C0ADB0A220023D1
:1027C000FDF7A8FF039B30321A55641E50EA010240
:1027D000F2D1641C039AC4F111031444119A012A22
:1027E00003D0012208430DD10AE0084304D00020A1
:1027F0004FF0110B119072E7A3EB0B056D1E0DE06E
:102800005B4504DD4FF0000205F1010504E003DA49
:102810004FF00002A5F10105002AECD002981199B1
:10282000C0E90231C0E9004579E70000000014402A
:102830000000F03F300000000000F0430000E03FE7
:102840002DE9FF4F95B09B468946064600250FE2CD
:10285000252877D100242746F84A0121059400E075
:10286000044316F8013F203B01FA03F01042F7D170
:1028700030782A2811D06FF02F033078A0F1300281
:10288000092A16D8059A44F0020402EB820203EBEF
:1028900042021044761C0590EFE759F8042B05928C
:1028A000002A03DA504244F40054059044F0020434
:1028B000761C30782E2816D116F8010F44F0040447
:1028C0002A280DD06FF02F023078A0F13003092BA9
:1028D00009D807EB870302EB4303C718761CF3E71D
:1028E00059F8047B761C30786C280FD006DC4C2815
:1028F00017D068280DD06A2814D104E0742810D0AD
:102900007A280FD10DE044F400140AE044F4801456
:1029100001E044F440147278824202D104F580143C
:10292000761C761C307866280BD013DC582877D0BC
:1029300009DC002875D04528F6D04628F4D0472871
:102940001AD19DE118E0632835D0642879D0652834
:1029500012D195E1702873D008DC6728F1D069287E
:102960006FD06E280DD06F2806D1B5E073282CD01B
:10297000752875D0782874D05A46179990476D1CE1
:1029800075E1C4F30250022809D003280DD0D9F80C
:10299000001004280DD00D6009F1040967E1D9F891
:1029A0000010EA17C1E90052F6E7D9F800100D80CF
:1029B000F2E70D70F0E719F8041B8DF80010002005
:1029C0008DF80100EA46012003E059F804AB4FF00E
:1029D000FF3061074FF0000102D40DE008F1010162
:1029E0008846B9420FDA8045F8DB1AF8081000294A
:1029F000F4D108E008F1010188468142FADB1AF8B7
:102A000008100029F6D105985B46A0EB080721467F
:102A10003846179A00F094FA284400EB080507E0BE
:102A20004DE029E10DE01AF8010B5A46179990473D
:102A3000B8F10108F7D25B4621463846179A13E1F0
:102A400042E00A220092C4F302524FF0000A022A26
:102A500008D059F804CB032A4FEAEC710AD00DE0F4
:102A600029E02AE009F1070121F00702F2E802C19A
:102A7000914609E00FFA8CFC4FEAEC71042A03D16D
:102A80004FFA8CFC4FEAEC71002907DA0A46002164
:102A9000DCF1000C61EB02012D2202E0220504D5DD
:102AA0002B228DF80420012203E0E20701D020222E
:102AB000F7E7904659E00A2102E010220DE01021CC
:102AC0004FF0000A00910BE010224FF0000A44F092
:102AD00004040827009203E008224FF0000A009245
:102AE000C4F30252022A05D059F804CB0021032A6C
:102AF00008D009E009F1070121F00702F2E802C15C
:102B0000914605E01FFA8CFC042A01D10CF0FF0C61
:102B10004FF00008220728D5702806D0009B83F0CC
:102B2000100353EA0A0305D00EE040228DF804207A
:102B3000012208E05CEA010206D030228DF8042070
:102B40008DF8050002229046009B83F0080353EAAB
:102B50000A030AD15CEA010201D1620705D53022DD
:102B60008DF804204FF001087F1E582804D034A0AF
:102B700003900EA802900DE036A0F9E75346604698
:102B8000009AFDF7C7FD84460398825C0298401EB8
:102B9000029002705CEA0100F0D1029806A9081ABE
:102BA00000F1200A600702D524F4803400E00127F8
:102BB000574502DDA7EB0A0000E0002000EB0A0108
:102BC000009005984144401A0590E00306D45B4606
:102BD0002146179A059800F0B3F90544002706E04E
:102BE00001A85A46C05D179990476D1C7F1C474548
:102BF000F6DBE0030CD55B462146179A059800F0FA
:102C00009FF9054404E030205A46179990476D1CFF
:102C10000099481E00900029F5DC08E0029802990E
:102C20005A460078491C0291179990476D1CBAF1D9
:102C30000001AAF1010AF1DC65E1000009280100A8
:102C40003031323334353637383961626364656622
:102C500000000000303132333435363738394142E4
:102C6000434445460000000000F058F90544761C36
:102C7000307800287FF4ECAD19B02846BDE8F08F1D
:102C8000620700D4062709F1070222F0070CFCE8CE
:102C90000223E14603F000485FEA080C02D00FF27D
:102CA000702C0DE05FEA045C02D50FF2682C07E09F
:102CB0005FEAC47C02D00FF2602C01E0AFF2700C2E
:102CC0004FF0FF3823F00043CDF850C065280CD0FA
:102CD00006DC452809D046281DD047283DD13DE0D7
:102CE000662818D067287ED138E00021112F01DB3B
:102CF000112000E0781CCDE9000106A90EA8FFF71D
:102D0000DDFCDDE90F010E9A03910021009207F12D
:102D1000010A04914DE04FF000400097CDE9011009
:102D200006A90EA8FFF7CAFCDDE90F0203920E9B6D
:102D300011990022DDF80CA00093049211B9791CBE
:102D400000EB010AB7EB0A0004D4C0F1FF3007F131
:102D5000010A0490AAEB0700019044E0012F00DA79
:102D600001270021112F01DD112000E03846CDE9B7
:102D7000000106A90EA8FFF7A1FCDDE90F010E9ADC
:102D80000391002104910092BA4621070CD40399C3
:102D9000514500DA8A46BAF1010F05DD009AAAF121
:102DA0000101515C302908D0B84202DA10F1040F59
:102DB00006DA0121CDE9011015E0AAF10101E9E7E8
:102DC000002805DC049901440491AAEB000102E00B
:102DD000411C514500DD8A460499401A401C01906F
:102DE0004FF000400290200704D40198504501DBC9
:102DF000CDF8048000208DF84F0002980DF14F07A8
:102E0000B0F1004F25D02B200E9002984FF0020811
:102E100000280CDA404202902D200E9007E00A2193
:102E20000298FDF761FC3031029007F8011DB8F1FE
:102E30000001A8F10108F2DC02980028EFD1791E08
:102E40000E980870307800F0200040F0450007F838
:102E5000020D12A8C01B00F107081498007800B1F9
:102E6000012000EB0A01019801EBE0710598414453
:102E7000401A401E0590E00306D45B462146179A8F
:102E8000059800F05DF805441498007818B15A468A
:102E9000179990476D1CE00324D55B462146179A8D
:102EA000059800F04DF805441CE00498002807DB65
:102EB000DDE90301884203DD0098405C179901E0D9
:102EC000179930205A469047049805F10105401C97
:102ED00004900198401E019004D12E205A46179963
:102EE00090476D1CBAF10001AAF1010ADDDC05E092
:102EF00017F8010B5A46179990476D1CB8F100015D
:102F0000A8F10108F4DC5B462146179A0598ABE668
:102F10002D0000002B000000200000002DE9F041F2
:102F2000044600251E461746880404D405E03946A9
:102F30002020B0476D1C641EF9D52846BDE8F081FD
:102F40002DE9F041044600251E469046C80301D5F0
:102F5000302700E02027880404D505E041463846A4
:102F6000B0476D1C641EF9D52846BDE8F08100000D
:102F700070B5044625462E460448A0EB6606354645
:102F800029462046FDF733F970BD0000865A375FA9
:102F900010B504460B48008800F4004088B10A4888
:102FA0000078442809D10848401CFDF7BBF8207080
:102FB000217806A0FFF7B6F900BF00BF0020014945
:102FC000088010BD200000202C0000206465627580
:102FD000675F666C61673D25640D0A00014642F239
:102FE00028324A434FF0E0235A6100229A611A4680
:102FF000126942F001021A6100BF4FF0E02210692D
:1030000000F001021AB100F48032002AF5D04FF02E
:10301000E022126922F001024FF0E0231A6100223F
:103020009A617047014601EBC1024FF0E0235A61FB
:1030300000229A6101221A6100BF4FF0E02210695C
:1030400000F001021AB100F48032002AF5D000220B
:103050004FF0E0231A619A617047000000BF054AF3
:10306000128802F04002002AF9D0C2B2014B1B1DA7
:103070001A8070470038014018B500BF0C8B04F06F
:103080000204002CFAD10C8844F480740C8000BF38
:103090008C8A04F00104002CFAD0D0240C8200BFEA
:1030A0008C8A04F00204002CFAD00C8B009400BF30
:1030B0008C8A04F08004002CFAD0088200BF8C8A2D
:1030C00004F08004002CFAD00C8844F480740C8046
:1030D00000BF8C8A04F00104002CFAD0D1240C82A9
:1030E00000BF8C8A04F00204002CFAD00C8B0094F0
:1030F0000C8844F480640C801DE0012A11D10C88F6
:1031000024F480640C800C8844F400740C8000BFAC
:103110008C8A04F04004002CFAD00C8A03F8014B8E
:103120000BE000BF8C8A04F04004002CFAD00C8A1B
:1031300003F8014B521E002ADFD100BF0C8844F473
:1031400080640C8018BD00009AB0FEF796F84FF42A
:10315000E13000F0F3F8FEF7A1FBFEF7DFFBFEF72E
:1031600047FC53480068FDF750FA04462146514891
:10317000FDF700FE4F490DA8FDF76EFE0DA8FDF707
:1031800064FE044621464CA0FFF7CCF84E490020CF
:10319000FEF7AAFA4C490120FEF7A6FA4A49022096
:1031A000FEF7A2FA48490320FEF79EFA464904209A
:1031B000FEF79AFA44490520FEF796FA424906209E
:1031C000FEF792FA40490720FEF78EFA4FF47A7024
:1031D000FFF704FF4FF0000BD94601200C903A484E
:1031E0000B9064E00DA8FDF7BBFE149880F0004042
:1031F0000A9000200B99FEF777FA9DF8300000281E
:103200004ED0324804684C4510D231490968A1EBD0
:1032100009010819FDF7ECF907462E4A2E4BFDF778
:10322000FDF80546FDF730FA82460CE0A4EB0900F4
:10323000FDF7DEF90746274A274BFDF7EFF805466D
:10324000FDF722FA8246A146BBF1000F22D1159864
:10325000FDF7EFF905460E461698FDF7EAF9074621
:1032600088460A98FDF7E5F9CDE908015046FDF7D3
:10327000E0F9CDE90278CDE90456CDE90601DDE9B2
:103280000801CDE9000115A0DDE90623FFF74AF8A2
:103290004FF0640B0320FFF7A1FEABF1010B00BF61
:1032A0000BA800F029F80CA8FFF772FE00BF99E701
:1032B00024000020005400404D50552049443A203D
:1032C00025780D0A000000000000B4421400002020
:1032D00018000020F168E388B5F8E43E252E356635
:1032E0002C20252E34662C20252E34662C20252ECD
:1032F00034660D0A0000000070B50446FDF7B9FF02
:10330000A0B90B48FDF792FF09480178407801EB1E
:10331000002085B240F6B830854202DB05482060C7
:1033200004E0B5F57A7F01DC0348206070BD000041
:103330002C010020000048420000024310B586B076
:103340000446012144F20400FEF70EF94FF4007028
:10335000ADF8140003208DF8160018208DF8170022
:1033600005A91C48FDF792FB4FF48060ADF81400EE
:1033700004208DF8170005A91648FDF787FB2520C6
:103380008DF8000003208DF801008DF80200012067
:103390008DF803006846FEF769F801940020ADF847
:1033A0000800ADF80A00ADF80C00ADF810000C20D4
:1033B000ADF80E0001A90848FEF710FF012240F207
:1033C00025510548FEF7E4FE01210348FEF7AAFE59
:1033D00006B010BD0008014000380140FFFFFFFFAC
:1033E000FFFFFFFFFFFF00404040404040404040A3
:1033F00041414141414040404040404040404040C8
:1034000040404040404040050202020202020202E7
:10341000020202020202022020202020202020207E
:1034200020020202020202029090909090901010EE
:10343000101010101010101010101010101010108C
:103440001010020202020202888888888888080810
:1034500008080808080808080808080808080808EC
:103460000808020202024000E73300088C3400081A
:10347000000000202C0000004C230008B834000895
:103480002C0000202C0500005C2300080000000038
:1034900001020304010203040607080902040608E6
:1034A00000000000FFFFFFFF000000000000000020
:0834B0000050C34800000000B9
:04000005080000ED02
:00000001FF
